{
  "_format": "hh-sol-artifact-1",
  "contractName": "Posting",
  "sourceName": "contracts/Posting.sol",
  "abi": [
    {
      "inputs": [],
      "stateMutability": "payable",
      "type": "constructor"
    },
    {
      "anonymous": false,
      "inputs": [
        {
          "indexed": true,
          "internalType": "address",
          "name": "from",
          "type": "address"
        },
        {
          "indexed": false,
          "internalType": "uint256",
          "name": "timestamp",
          "type": "uint256"
        },
        {
          "indexed": false,
          "internalType": "string",
          "name": "message",
          "type": "string"
        }
      ],
      "name": "NewPost",
      "type": "event"
    },
    {
      "inputs": [],
      "name": "getAllPosts",
      "outputs": [
        {
          "components": [
            {
              "internalType": "uint256",
              "name": "id",
              "type": "uint256"
            },
            {
              "internalType": "address",
              "name": "user",
              "type": "address"
            },
            {
              "internalType": "string",
              "name": "message",
              "type": "string"
            },
            {
              "internalType": "uint256",
              "name": "timestamp",
              "type": "uint256"
            },
            {
              "internalType": "uint256",
              "name": "totalLikes",
              "type": "uint256"
            }
          ],
          "internalType": "struct Posting.Post[]",
          "name": "",
          "type": "tuple[]"
        }
      ],
      "stateMutability": "view",
      "type": "function"
    },
    {
      "inputs": [],
      "name": "getTotalPosts",
      "outputs": [
        {
          "internalType": "uint256",
          "name": "",
          "type": "uint256"
        }
      ],
      "stateMutability": "view",
      "type": "function"
    },
    {
      "inputs": [
        {
          "internalType": "uint256",
          "name": "",
          "type": "uint256"
        },
        {
          "internalType": "address",
          "name": "",
          "type": "address"
        }
      ],
      "name": "likedUsers",
      "outputs": [
        {
          "internalType": "address",
          "name": "",
          "type": "address"
        }
      ],
      "stateMutability": "view",
      "type": "function"
    },
    {
      "inputs": [
        {
          "internalType": "string",
          "name": "_message",
          "type": "string"
        }
      ],
      "name": "post",
      "outputs": [],
      "stateMutability": "nonpayable",
      "type": "function"
    },
    {
      "inputs": [
        {
          "internalType": "uint256",
          "name": "id",
          "type": "uint256"
        }
      ],
      "name": "updateTotalLikes",
      "outputs": [],
      "stateMutability": "nonpayable",
      "type": "function"
    }
  ],
  "bytecode": "0x60806040526200004f6040518060400160405280601c81526020017f506f7374506f7274616c202d20536d61727420436f6e747261637421000000008152506200007760201b62000a541760201c565b606442446200005f9190620001c4565b6200006b919062000261565b60028190555062000308565b62000117816040516024016200008e919062000184565b6040516020818303038152906040527f41304fac000000000000000000000000000000000000000000000000000000007bffffffffffffffffffffffffffffffffffffffffffffffffffffffff19166020820180517bffffffffffffffffffffffffffffffffffffffffffffffffffffffff83818316178352505050506200011a60201b60201c565b50565b60008151905060006a636f6e736f6c652e6c6f679050602083016000808483855afa5050505050565b60006200015082620001a8565b6200015c8185620001b3565b93506200016e8185602086016200022b565b6200017981620002f7565b840191505092915050565b60006020820190508181036000830152620001a0818462000143565b905092915050565b600081519050919050565b600082825260208201905092915050565b6000620001d18262000221565b9150620001de8362000221565b9250827fffffffffffffffffffffffffffffffffffffffffffffffffffffffffffffffff0382111562000216576200021562000299565b5b828201905092915050565b6000819050919050565b60005b838110156200024b5780820151818401526020810190506200022e565b838111156200025b576000848401525b50505050565b60006200026e8262000221565b91506200027b8362000221565b9250826200028e576200028d620002c8565b5b828206905092915050565b7f4e487b7100000000000000000000000000000000000000000000000000000000600052601160045260246000fd5b7f4e487b7100000000000000000000000000000000000000000000000000000000600052601260045260246000fd5b6000601f19601f8301169050919050565b61174580620003186000396000f3fe608060405234801561001057600080fd5b50600436106100575760003560e01c8063305611001461005c5780635fe226b41461007a5780638ee93cf314610098578063956c5477146100b4578063cda8685f146100e4575b600080fd5b610064610100565b6040516100719190611153565b60405180910390f35b610082610345565b60405161008f919061127c565b60405180910390f35b6100b260048036038101906100ad9190610e67565b610390565b005b6100ce60048036038101906100c99190610ed1565b610721565b6040516100db9190611138565b60405180910390f35b6100fe60048036038101906100f99190610ea8565b610763565b005b6060600060015467ffffffffffffffff811115610146577f4e487b7100000000000000000000000000000000000000000000000000000000600052604160045260246000fd5b60405190808252806020026020018201604052801561017f57816020015b61016c610ced565b8152602001906001900390816101645790505b50905060005b60015481101561033d57600081815481106101c9577f4e487b7100000000000000000000000000000000000000000000000000000000600052603260045260246000fd5b90600052602060002090600502016040518060a0016040529081600082015481526020016001820160009054906101000a900473ffffffffffffffffffffffffffffffffffffffff1673ffffffffffffffffffffffffffffffffffffffff1673ffffffffffffffffffffffffffffffffffffffff16815260200160028201805461025290611496565b80601f016020809104026020016040519081016040528092919081815260200182805461027e90611496565b80156102cb5780601f106102a0576101008083540402835291602001916102cb565b820191906000526020600020905b8154815290600101906020018083116102ae57829003601f168201915b5050505050815260200160038201548152602001600482015481525050828281518110610321577f4e487b7100000000000000000000000000000000000000000000000000000000600052603260045260246000fd5b602002602001018190525080610336906114f9565b9050610185565b508091505090565b60006103886040518060400160405280600f81526020017f746f74616c20706f7374733a2025640000000000000000000000000000000000815250600154610aed565b600154905090565b60006040518060a0016040528060015481526020013373ffffffffffffffffffffffffffffffffffffffff168152602001838152602001428152602001600081525090806001815401808255809150506001900390600052602060002090600502016000909190919091506000820151816000015560208201518160010160006101000a81548173ffffffffffffffffffffffffffffffffffffffff021916908373ffffffffffffffffffffffffffffffffffffffff1602179055506040820151816002019080519060200190610468929190610d32565b50606082015181600301556080820151816004015550506001806000828254610491919061138e565b925050819055506104d86040518060400160405280601681526020017f257320706f73746420772f206d777373616765202573000000000000000000008152503383610b89565b606460025442446104e9919061138e565b6104f3919061138e565b6104fd9190611542565b6002819055506105446040518060400160405280601681526020017f52616e646f6d20232067656e6572617465643a20256400000000000000000000815250600254610aed565b60146002541161068e5761058d6040518060400160405280600781526020017f257320776f6e210000000000000000000000000000000000000000000000000081525033610c28565b6000655af3107a40009050478111156105db576040517f08c379a00000000000000000000000000000000000000000000000000000000081526004016105d29061123c565b60405180910390fd5b60003373ffffffffffffffffffffffffffffffffffffffff168260405161060190611123565b60006040518083038185875af1925050503d806000811461063e576040519150601f19603f3d011682016040523d82523d6000602084013e610643565b606091505b5050905080610687576040517f08c379a000000000000000000000000000000000000000000000000000000000815260040161067e9061125c565b60405180910390fd5b50506106ce565b6106cd6040518060400160405280600f81526020017f257320646964206e6f742077696e2e000000000000000000000000000000000081525033610c28565b5b3373ffffffffffffffffffffffffffffffffffffffff167fd8c86c7877c3f1f8a40af6cf64a11fe867af887f2a1ad31aac849e36730425b04283604051610716929190611297565b60405180910390a250565b60036020528160005260406000206020528060005260406000206000915091509054906101000a900473ffffffffffffffffffffffffffffffffffffffff1681565b3373ffffffffffffffffffffffffffffffffffffffff166003600083815260200190815260200160002060003373ffffffffffffffffffffffffffffffffffffffff1673ffffffffffffffffffffffffffffffffffffffff16815260200190815260200160002060009054906101000a900473ffffffffffffffffffffffffffffffffffffffff1673ffffffffffffffffffffffffffffffffffffffff16141561092057600160008281548110610843577f4e487b7100000000000000000000000000000000000000000000000000000000600052603260045260246000fd5b9060005260206000209060050201600401600082825461086391906113e4565b925050819055506003600082815260200190815260200160002060003373ffffffffffffffffffffffffffffffffffffffff1673ffffffffffffffffffffffffffffffffffffffff16815260200190815260200160002060006101000a81549073ffffffffffffffffffffffffffffffffffffffff021916905561091b6040518060400160405280600981526020017f64656372656d656e740000000000000000000000000000000000000000000000815250610a54565b610a51565b60016000828154811061095c577f4e487b7100000000000000000000000000000000000000000000000000000000600052603260045260246000fd5b9060005260206000209060050201600401600082825461097c919061138e565b92505081905550336003600083815260200190815260200160002060003373ffffffffffffffffffffffffffffffffffffffff1673ffffffffffffffffffffffffffffffffffffffff16815260200190815260200160002060006101000a81548173ffffffffffffffffffffffffffffffffffffffff021916908373ffffffffffffffffffffffffffffffffffffffff160217905550610a506040518060400160405280600981526020017f696e6372656d656e740000000000000000000000000000000000000000000000815250610a54565b5b50565b610aea81604051602401610a689190611175565b6040516020818303038152906040527f41304fac000000000000000000000000000000000000000000000000000000007bffffffffffffffffffffffffffffffffffffffffffffffffffffffff19166020820180517bffffffffffffffffffffffffffffffffffffffffffffffffffffffff8381831617835250505050610cc4565b50565b610b858282604051602401610b0392919061120c565b6040516020818303038152906040527f9710a9d0000000000000000000000000000000000000000000000000000000007bffffffffffffffffffffffffffffffffffffffffffffffffffffffff19166020820180517bffffffffffffffffffffffffffffffffffffffffffffffffffffffff8381831617835250505050610cc4565b5050565b610c23838383604051602401610ba1939291906111c7565b6040516020818303038152906040527fe0e9ad4f000000000000000000000000000000000000000000000000000000007bffffffffffffffffffffffffffffffffffffffffffffffffffffffff19166020820180517bffffffffffffffffffffffffffffffffffffffffffffffffffffffff8381831617835250505050610cc4565b505050565b610cc08282604051602401610c3e929190611197565b6040516020818303038152906040527f319af333000000000000000000000000000000000000000000000000000000007bffffffffffffffffffffffffffffffffffffffffffffffffffffffff19166020820180517bffffffffffffffffffffffffffffffffffffffffffffffffffffffff8381831617835250505050610cc4565b5050565b60008151905060006a636f6e736f6c652e6c6f679050602083016000808483855afa5050505050565b6040518060a0016040528060008152602001600073ffffffffffffffffffffffffffffffffffffffff1681526020016060815260200160008152602001600081525090565b828054610d3e90611496565b90600052602060002090601f016020900481019282610d605760008555610da7565b82601f10610d7957805160ff1916838001178555610da7565b82800160010185558215610da7579182015b82811115610da6578251825591602001919060010190610d8b565b5b509050610db49190610db8565b5090565b5b80821115610dd1576000816000905550600101610db9565b5090565b6000610de8610de3846112ec565b6112c7565b905082815260208101848484011115610e0057600080fd5b610e0b848285611454565b509392505050565b600081359050610e22816116e1565b92915050565b600082601f830112610e3957600080fd5b8135610e49848260208601610dd5565b91505092915050565b600081359050610e61816116f8565b92915050565b600060208284031215610e7957600080fd5b600082013567ffffffffffffffff811115610e9357600080fd5b610e9f84828501610e28565b91505092915050565b600060208284031215610eba57600080fd5b6000610ec884828501610e52565b91505092915050565b60008060408385031215610ee457600080fd5b6000610ef285828601610e52565b9250506020610f0385828601610e13565b9150509250929050565b6000610f19838361108f565b905092915050565b610f2a81611418565b82525050565b610f3981611418565b82525050565b6000610f4a8261132d565b610f548185611350565b935083602082028501610f668561131d565b8060005b85811015610fa25784840389528151610f838582610f0d565b9450610f8e83611343565b925060208a01995050600181019050610f6a565b50829750879550505050505092915050565b6000610fbf82611338565b610fc9818561136c565b9350610fd9818560208601611463565b610fe28161162f565b840191505092915050565b6000610ff882611338565b611002818561137d565b9350611012818560208601611463565b61101b8161162f565b840191505092915050565b600061103360348361137d565b915061103e82611640565b604082019050919050565b600061105660278361137d565b91506110618261168f565b604082019050919050565b6000611079600083611361565b9150611084826116de565b600082019050919050565b600060a0830160008301516110a76000860182611105565b5060208301516110ba6020860182610f21565b50604083015184820360408601526110d28282610fb4565b91505060608301516110e76060860182611105565b5060808301516110fa6080860182611105565b508091505092915050565b61110e8161144a565b82525050565b61111d8161144a565b82525050565b600061112e8261106c565b9150819050919050565b600060208201905061114d6000830184610f30565b92915050565b6000602082019050818103600083015261116d8184610f3f565b905092915050565b6000602082019050818103600083015261118f8184610fed565b905092915050565b600060408201905081810360008301526111b18185610fed565b90506111c06020830184610f30565b9392505050565b600060608201905081810360008301526111e18186610fed565b90506111f06020830185610f30565b81810360408301526112028184610fed565b9050949350505050565b600060408201905081810360008301526112268185610fed565b90506112356020830184611114565b9392505050565b6000602082019050818103600083015261125581611026565b9050919050565b6000602082019050818103600083015261127581611049565b9050919050565b60006020820190506112916000830184611114565b92915050565b60006040820190506112ac6000830185611114565b81810360208301526112be8184610fed565b90509392505050565b60006112d16112e2565b90506112dd82826114c8565b919050565b6000604051905090565b600067ffffffffffffffff82111561130757611306611600565b5b6113108261162f565b9050602081019050919050565b6000819050602082019050919050565b600081519050919050565b600081519050919050565b6000602082019050919050565b600082825260208201905092915050565b600081905092915050565b600082825260208201905092915050565b600082825260208201905092915050565b60006113998261144a565b91506113a48361144a565b9250827fffffffffffffffffffffffffffffffffffffffffffffffffffffffffffffffff038211156113d9576113d8611573565b5b828201905092915050565b60006113ef8261144a565b91506113fa8361144a565b92508282101561140d5761140c611573565b5b828203905092915050565b60006114238261142a565b9050919050565b600073ffffffffffffffffffffffffffffffffffffffff82169050919050565b6000819050919050565b82818337600083830152505050565b60005b83811015611481578082015181840152602081019050611466565b83811115611490576000848401525b50505050565b600060028204905060018216806114ae57607f821691505b602082108114156114c2576114c16115d1565b5b50919050565b6114d18261162f565b810181811067ffffffffffffffff821117156114f0576114ef611600565b5b80604052505050565b60006115048261144a565b91507fffffffffffffffffffffffffffffffffffffffffffffffffffffffffffffffff82141561153757611536611573565b5b600182019050919050565b600061154d8261144a565b91506115588361144a565b925082611568576115676115a2565b5b828206905092915050565b7f4e487b7100000000000000000000000000000000000000000000000000000000600052601160045260246000fd5b7f4e487b7100000000000000000000000000000000000000000000000000000000600052601260045260246000fd5b7f4e487b7100000000000000000000000000000000000000000000000000000000600052602260045260246000fd5b7f4e487b7100000000000000000000000000000000000000000000000000000000600052604160045260246000fd5b6000601f19601f8301169050919050565b7f547279696e6720746f207769746864726177206d6f7265206d6f6e657920746860008201527f616e2074686520636f6e7472616374206861732e000000000000000000000000602082015250565b7f4661696c656420746f207769746864726177206d6f6e65792066726f6d20636f60008201527f6e74726163742e00000000000000000000000000000000000000000000000000602082015250565b50565b6116ea81611418565b81146116f557600080fd5b50565b6117018161144a565b811461170c57600080fd5b5056fea2646970667358221220ec1060013b229fab93f4b91f522cfef6c8ad5cac1d9ce02f85a3ea2f0f24c61764736f6c63430008040033",
  "linkReferences": {},
  "deployedLinkReferences": {}
}